:020000040800F2
:100000008006002089010008910100089301000882
:100010009501000897010008990100080000000000
:100020000000000000000000000000009B0100082C
:100030009D010008000000009F010008150700084E
:10004000A3010008A3010008A3010008A301000800
:10005000A3010008A3010008A3010008A3010008F0
:10006000A3010008A3010008A3010008A3010008E0
:10007000A3010008A3010008A3010008A3010008D0
:10008000A3010008A3010008A3010008A3010008C0
:10009000A3010008A3010008A3010008A3010008B0
:1000A000A3010008A3010008A3010008A3010008A0
:1000B000A3010008A3010008A3010008A301000890
:1000C000A3010008A3010008A3010008A301000880
:1000D000A3010008A3010008A3010008A301000870
:1000E000A3010008A3010008A301000800F002F822
:1000F00000F03AF80AA090E8000C82448344AAF188
:100100000107DA4501D100F02FF8AFF2090EBAE885
:100110000F0013F0010F18BFFB1A43F0010318473B
:100120004C0900006C090000103A24BF78C878C15F
:10013000FAD8520724BF30C830C144BF04680C60ED
:10014000704700000023002400250026103A28BF35
:1001500078C1FBD8520728BF30C148BF0B60704739
:100160001FB51FBD10B510BD00F031F81146FFF7E7
:10017000F7FF00F019FC00F04FF803B4FFF7F2FFAF
:1001800003BC00F057F800000948804709480047C1
:10019000FEE7FEE7FEE7FEE7FEE7FEE7FEE7FEE737
:1001A000FEE7FEE704480549054A064B7047000094
:1001B000C9070008ED00000880000020800600202C
:1001C000800200208002002070477047704775460B
:1001D00000F02CF8AE4605006946534620F00700B3
:1001E000854618B020B5FFF7DDFFBDE820404FF091
:1001F00000064FF000074FF000084FF0000B21F011
:100200000701AC46ACE8C009ACE8C009ACE8C009DD
:10021000ACE8C0098D46704710B50446AFF30080C6
:100220002046BDE81040FFF7A8BF00000048704717
:100230001C00002001491820ABBEFEE7260002008A
:100240007047000070B500F06DFA144800684FF474
:100250007A72B0FBF2F1481EB0F1807F00D31BE050
:10026000481E4FF0E022506150170F22002804DB97
:1002700013071C0E0A4B1C5406E013071D0E094BF6
:1002800000F00F04241F1D5500BF00204FF0E02296
:1002900090610720106100BF70BD000008000020C1
:1002A00000E400E018ED00E02DE9F04102460025F1
:1002B0000026002000230024002791F803C00CF042
:1002C0000F0591F803C00CF0100CBCF1000F03D027
:1002D00091F802C04CEA050591F800C0BCF1000F8E
:1002E00031D0146800202BE04FF0010C0CFA00F321
:1002F000B1F800C00CEA03069E4220D183004FF003
:100300000F0C0CFA03F7BC4305FA03FC4CEA040497
:1003100091F803C0BCF1280F06D14FF0010C0CFA84
:1003200000FCC2F814C00AE091F803C0BCF1480F09
:1003300005D14FF0010C0CFA00FCC2F810C0401CB3
:100340000828D1D31460B1F800C0BCF1FF0F34DD30
:10035000546800202EE000F1080C4FF0010808FA64
:100360000CF3B1F800C00CEA03069E4221D18300D1
:100370004FF00F0C0CFA03F7BC4305FA03FC4CEAF0
:10038000040491F803C0BCF1280F05D100F1080C5A
:1003900008FA0CF8C2F8148091F803C0BCF1480FB9
:1003A00007D100F1080C4FF0010808FA0CF8C2F868
:1003B0001080401C0828CED35460BDE8F0810000B6
:1003C00000B589B00121084600F03EF80A20ADF8DA
:1003D00018004F20ADF81C000020ADF81E00ADF84D
:1003E0001A0006A94FF0804000F080FA012188072A
:1003F00000F01AFA6020ADF808000120ADF80A00FC
:100400000020ADF81000ADF80E0002A94FF08040BA
:1004100000F016FA0821C80600F05EFA0121042057
:1004200000F022F80120ADF8040018208DF8070034
:1004300002208DF8060001A90248FFF735FF09B038
:1004400000BD00000008014029B1064AD2690243FC
:10045000044BDA6104E0034AD2698243014BDA615A
:10046000704700000010024029B1064A9269024319
:10047000044B9A6104E0034A92698243014B9A61FA
:1004800070470000001002400F48006840F0010073
:100490000D490860084640680C4908400A49486010
:1004A000084600680A49084007490860084600688D
:1004B00020F4802008600846406820F4FE00486070
:1004C0004FF41F0088607047001002400000FFF8E2
:1004D000FFFFF6FE10B501460022002300204A115E
:1004E000012A02D1094C236806E0022A02D1074CF6
:1004F000236A01E0054C636A01F01F020124944065
:100500001C400CB1012000E0002010BD0010024092
:100510000248406800F00C007047000000100240E4
:1005200001460020034A506820F0F0000843506064
:1005300070470000001002401149096821F4803121
:100540000F4A11601146096821F480211160B0F54D
:10055000803F03D0B0F5802F0ED106E0084909682E
:1005600041F48031064A116007E00549096841F409
:10057000A021034A116000E000BF00BF70470000E7
:100580000010024001460020034A506820F4E06059
:1005900008435060704700000010024001460020F0
:1005A000034A506820F4605040EAC1005060704730
:1005B00000100240014908667047000000004242F6
:1005C00002460020044B586820F47C1042EA0103E4
:1005D0001843014B5860704700100240014600204C
:1005E000034A506820F00300084350607047000041
:1005F0000010024038B5002000900024002500BF04
:100600003120FFF767FF05460098401C00900098D6
:10061000B0F5A06F01D0002DF2D03120FFF75AFFC6
:1006200008B1012400E00024204638BD10B500F0D8
:1006300001F810BD0CB5002001900090334800680F
:1006400040F480303149086000BF3048006800F451
:10065000003000900198401C0190009818B9019852
:10066000B0F5A06FF1D12948006800F4003010B156
:100670000120009001E0002000900098012843D163
:100680002348006840F010002149086008460068CF
:1006900020F0030008600846006840F0020008608F
:1006A0001A4840681949486008464068486008464A
:1006B000406840F4806048600846406820F47C1040
:1006C00048600846406840F4E81048600846006802
:1006D00040F08070086000BF0C48006800F00070B7
:1006E0000028F9D00948406820F003000749486015
:1006F0000846406840F00200486000BF0348406878
:1007000000F00C000828F9D10CBD000000100240D8
:100710000020024002480068401C01490860704700
:100720000400002010B5002100200022214B5B684E
:1007300003F00C0121B1042906D0082928D107E0D3
:100740001D4B1E4C236027E01B4B1C4C236023E0F9
:10075000184B5B6803F47010164B5B6803F480322F
:10076000022303EB904022B9154B4343134C236003
:100770000DE0104B5B6803F4003323B1104B43438F
:100780000E4C236003E00C4B43430C4C236003E00E
:10079000094B0A4C236000BF00BF064B5B68C3F3E4
:1007A0000313084CE15C054B1B68CB40034C2360F2
:1007B00010BD00000010024000127A000800002066
:1007C00000093D000C00002010B51348006840F0FF
:1007D00001001149086008464068104908400E4968
:1007E0004860084600680E4908400B490860084602
:1007F000006820F4802008600846406820F4FE006D
:1008000048604FF41F008860FFF710FF4FF0006052
:100810000449086010BD0000001002400000FFF80D
:10082000FFFFF6FE08ED00E021B1028842F0010270
:10083000028004E002884FF6FE731A40028070477F
:1008400070B5002400220023058C4FF6FE7635405B
:100850000584028C8388048B4FF68F752C40B51E5F
:100860002C400D882C43751E2A400D892A434D8843
:100870002A43144DA8420BD0134DA84208D0134D63
:10088000A84205D0124DA84202D0124DA84213D161
:100890004FF6F7752A404D892A434FF6FB752A40DB
:1008A0008D882A434FF6FF652B404FF6FF552B40AE
:1008B0008D892B43CD892B4383800483CD88858606
:1008C000028470BD002C0140003401400040014012
:1008D00000440140004801400A460021018B4FF6C8
:1008E000F77319401143018370470000002202880A
:1008F0001D4B98420ED01D4B98420BD0B0F1804F4B
:1009000008D01B4B984205D01A4B984202D01A4B84
:10091000984204D14FF68F731A404B881A43174BF5
:10092000984207D0164B984204D04FF6FF431A4026
:10093000CB881A4302808B8883850B8803850A4BFA
:1009400098420BD0094B984208D00E4B984205D0E4
:100950000D4B984202D00D4B984201D10B7A038681
:100960000123838270470000002C014000340140C5
:100970000004004000080040000C0040001000404F
:100980000014004000400140004401400048014084
:10099000044A116800BF034A1268521A8242FAD30D
:1009A000704700000400002000F032F8FFF74AFC16
:1009B000FFF706FD29E00020144908600CE0134809
:1009C00000884FF0804188863220FFF7E1FF0F4812
:1009D0000068401C0D4908600C4800684F28EEDD97
:1009E0004F200A4908600CE0084800884FF0804119
:1009F00088863220FFF7CCFF04480068401E034978
:100A00000860024800680028EEDAD4E70000002001
:100A100010B5FFF739FD4FF48030FFF78DFDFFF77C
:100A2000E9FD0446012C20D10020FFF779FD0020CC
:100A3000FFF7B4FDA002FFF7A5FD4FF4E01120047D
:100A4000FFF7BEFD0120FFF7B5FD00BF3920FFF71E
:100A500041FD0028FAD00220FFF7C0FD00BFFFF7DC
:100A600057FD0828FBD1FFF75DFE10BD8C0A00087A
:100A7000000000201C00000028010008A80A00084F
:100A80001C00002064060000440100080000000073
:100A90000000000000A24A04000000000000000066
:080AA000010203040607080926
:040000050800018965
:00000001FF
